{
  "_format": "hh-sol-artifact-1",
  "contractName": "Example",
  "sourceName": "contracts/Example.sol",
  "abi": [
    {
      "anonymous": false,
      "inputs": [
        {
          "indexed": false,
          "internalType": "uint256",
          "name": "",
          "type": "uint256"
        }
      ],
      "name": "XChanged",
      "type": "event"
    },
    {
      "inputs": [
        {
          "internalType": "uint256",
          "name": "_x",
          "type": "uint256"
        }
      ],
      "name": "change",
      "outputs": [],
      "stateMutability": "nonpayable",
      "type": "function"
    },
    {
      "inputs": [],
      "name": "x",
      "outputs": [
        {
          "internalType": "uint256",
          "name": "",
          "type": "uint256"
        }
      ],
      "stateMutability": "view",
      "type": "function"
    }
  ],
  "bytecode": "0x6080604052348015600f57600080fd5b506101848061001f6000396000f3fe608060405234801561001057600080fd5b50600436106100365760003560e01c80630c55699c1461003b57806375322e4714610059575b600080fd5b610043610075565b60405161005091906100d5565b60405180910390f35b610073600480360381019061006e9190610121565b61007b565b005b60005481565b806000819055507fceeee1fb76599ca46aff82635ae1181018ed6c2b3feb4299610c4baddca1a9e4816040516100b191906100d5565b60405180910390a150565b6000819050919050565b6100cf816100bc565b82525050565b60006020820190506100ea60008301846100c6565b92915050565b600080fd5b6100fe816100bc565b811461010957600080fd5b50565b60008135905061011b816100f5565b92915050565b600060208284031215610137576101366100f0565b5b60006101458482850161010c565b9150509291505056fea2646970667358221220abc3a4ef00c12ea481dc0e3bc92afd4ef08610e3bae65136f489a2eeba15b1a264736f6c634300081b0033",
  "linkReferences": {},
  "deployedLinkReferences": {}
}